{
    "abi": [
        {
            "type": "function",
            "name": "addressToTargetId",
            "inputs": [
                {
                    "name": "target",
                    "type": "address",
                    "internalType": "address"
                }
            ],
            "outputs": [
                {
                    "name": "",
                    "type": "bytes32",
                    "internalType": "bytes32"
                }
            ],
            "stateMutability": "pure"
        },
        {
            "type": "function",
            "name": "hasVoted",
            "inputs": [
                {
                    "name": "targetId",
                    "type": "bytes32",
                    "internalType": "bytes32"
                },
                {
                    "name": "reporterAddr",
                    "type": "address",
                    "internalType": "address"
                }
            ],
            "outputs": [
                {
                    "name": "",
                    "type": "bool",
                    "internalType": "bool"
                }
            ],
            "stateMutability": "view"
        },
        {
            "type": "function",
            "name": "submitReport",
            "inputs": [
                {
                    "name": "reasonHash",
                    "type": "bytes32",
                    "internalType": "bytes32"
                },
                {
                    "name": "isScam",
                    "type": "bool",
                    "internalType": "bool"
                }
            ],
            "outputs": [],
            "stateMutability": "nonpayable"
        },
        {
            "type": "function",
            "name": "submitVote",
            "inputs": [
                {
                    "name": "targetType",
                    "type": "uint8",
                    "internalType": "uint8"
                },
                {
                    "name": "targetId",
                    "type": "bytes32",
                    "internalType": "bytes32"
                },
                {
                    "name": "reasonHash",
                    "type": "bytes32",
                    "internalType": "bytes32"
                },
                {
                    "name": "isScam",
                    "type": "bool",
                    "internalType": "bool"
                }
            ],
            "outputs": [],
            "stateMutability": "nonpayable"
        },
        {
            "type": "event",
            "name": "ScamReportSubmitted",
            "inputs": [
                {
                    "name": "reporter",
                    "type": "address",
                    "indexed": true,
                    "internalType": "address"
                },
                {
                    "name": "reasonHash",
                    "type": "bytes32",
                    "indexed": true,
                    "internalType": "bytes32"
                },
                {
                    "name": "isScam",
                    "type": "bool",
                    "indexed": false,
                    "internalType": "bool"
                }
            ],
            "anonymous": false
        },
        {
            "type": "event",
            "name": "ScamVoteSubmitted",
            "inputs": [
                {
                    "name": "reporter",
                    "type": "address",
                    "indexed": true,
                    "internalType": "address"
                },
                {
                    "name": "targetId",
                    "type": "bytes32",
                    "indexed": true,
                    "internalType": "bytes32"
                },
                {
                    "name": "targetType",
                    "type": "uint8",
                    "indexed": false,
                    "internalType": "uint8"
                },
                {
                    "name": "reasonHash",
                    "type": "bytes32",
                    "indexed": false,
                    "internalType": "bytes32"
                },
                {
                    "name": "isScam",
                    "type": "bool",
                    "indexed": false,
                    "internalType": "bool"
                }
            ],
            "anonymous": false
        },
        {
            "type": "error",
            "name": "AlreadyVoted",
            "inputs": [
                {
                    "name": "targetId",
                    "type": "bytes32",
                    "internalType": "bytes32"
                },
                {
                    "name": "reporter",
                    "type": "address",
                    "internalType": "address"
                }
            ]
        },
        {
            "type": "error",
            "name": "EmptyReasonHash",
            "inputs": []
        },
        {
            "type": "error",
            "name": "EmptyTargetId",
            "inputs": []
        },
        {
            "type": "error",
            "name": "InvalidTargetType",
            "inputs": []
        }
    ],
    "bytecode": {
        "object": "0x608060405234801561000f575f80fd5b5061074a8061001d5f395ff3fe608060405234801561000f575f80fd5b506004361061004a575f3560e01c806375f760211461004e578063aadc3b721461007e578063b5dd6284146100ae578063bbd89cfb146100ca575b5f80fd5b61006860048036038101906100639190610474565b6100e6565b60405161007591906104b7565b60405180910390f35b610098600480360381019061009391906104fa565b610107565b6040516100a59190610552565b60405180910390f35b6100c860048036038101906100c391906105cb565b610168565b005b6100e460048036038101906100df919061062f565b610388565b005b5f8173ffffffffffffffffffffffffffffffffffffffff165f1b9050919050565b5f805f8481526020019081526020015f205f8373ffffffffffffffffffffffffffffffffffffffff1673ffffffffffffffffffffffffffffffffffffffff1681526020019081526020015f205f9054906101000a900460ff16905092915050565b5f801b83036101a3576040517f19b071de00000000000000000000000000000000000000000000000000000000815260040160405180910390fd5b5f801b82036101de576040517f817f48ed00000000000000000000000000000000000000000000000000000000815260040160405180910390fd5b6002808111156101f1576101f061066d565b5b60ff168460ff161115610230576040517fe46cb78500000000000000000000000000000000000000000000000000000000815260040160405180910390fd5b5f808481526020019081526020015f205f3373ffffffffffffffffffffffffffffffffffffffff1673ffffffffffffffffffffffffffffffffffffffff1681526020019081526020015f205f9054906101000a900460ff16156102cc5782336040517f0bcf2ea30000000000000000000000000000000000000000000000000000000081526004016102c39291906106a9565b60405180910390fd5b60015f808581526020019081526020015f205f3373ffffffffffffffffffffffffffffffffffffffff1673ffffffffffffffffffffffffffffffffffffffff1681526020019081526020015f205f6101000a81548160ff021916908315150217905550823373ffffffffffffffffffffffffffffffffffffffff167f4866b80505de2a9f11bc92df30aba8d340b203e4e3700be812a4477860fb7c2186858560405161037a939291906106df565b60405180910390a350505050565b5f801b82036103c3576040517f817f48ed00000000000000000000000000000000000000000000000000000000815260040160405180910390fd5b813373ffffffffffffffffffffffffffffffffffffffff167f79894f1cff1f4559d5bdf71389e2213f93539a2f03ba03edceec7927accb9ae58360405161040a9190610552565b60405180910390a35050565b5f80fd5b5f73ffffffffffffffffffffffffffffffffffffffff82169050919050565b5f6104438261041a565b9050919050565b61045381610439565b811461045d575f80fd5b50565b5f8135905061046e8161044a565b92915050565b5f6020828403121561048957610488610416565b5b5f61049684828501610460565b91505092915050565b5f819050919050565b6104b18161049f565b82525050565b5f6020820190506104ca5f8301846104a8565b92915050565b6104d98161049f565b81146104e3575f80fd5b50565b5f813590506104f4816104d0565b92915050565b5f80604083850312156105105761050f610416565b5b5f61051d858286016104e6565b925050602061052e85828601610460565b9150509250929050565b5f8115159050919050565b61054c81610538565b82525050565b5f6020820190506105655f830184610543565b92915050565b5f60ff82169050919050565b6105808161056b565b811461058a575f80fd5b50565b5f8135905061059b81610577565b92915050565b6105aa81610538565b81146105b4575f80fd5b50565b5f813590506105c5816105a1565b92915050565b5f805f80608085870312156105e3576105e2610416565b5b5f6105f08782880161058d565b9450506020610601878288016104e6565b9350506040610612878288016104e6565b9250506060610623878288016105b7565b91505092959194509250565b5f806040838503121561064557610644610416565b5b5f610652858286016104e6565b9250506020610663858286016105b7565b9150509250929050565b7f4e487b71000000000000000000000000000000000000000000000000000000005f52602160045260245ffd5b6106a381610439565b82525050565b5f6040820190506106bc5f8301856104a8565b6106c9602083018461069a565b9392505050565b6106d98161056b565b82525050565b5f6060820190506106f25f8301866106d0565b6106ff60208301856104a8565b61070c6040830184610543565b94935050505056fea2646970667358221220a404cb8fe409d0b24ee7f5e11fccc0d575402ee5884d5c501b43dd07bdfe25b464736f6c63430008180033",
        "linkReferences": {}
    },
    "methodIdentifiers": {
        "addressToTargetId(address)": "75f76021",
        "hasVoted(bytes32,address)": "aadc3b72",
        "submitReport(bytes32,bool)": "bbd89cfb",
        "submitVote(uint8,bytes32,bytes32,bool)": "b5dd6284"
    },
    "id": 19
}